:020000040800F2
:1000000000C0002031200008451F0008471F0008DD
:10001000491F00084B1F00084D1F0008000000008A
:100020000000000000000000000000004F1F00085A
:10003000511F000800000000531F0008551F000852
:10004000792000087920000879200008792000082C
:10005000792000087920000879200008792000081C
:10006000792000085D1F0008792000087920000829
:10007000811F0008911F00087920000879200008DE
:1000800079200008792000087920000879200008EC
:1000900079200008792000087920000879200008DC
:1000A00079200008792000087920000879200008CC
:1000B000A11F000879200008792000087920000895
:1000C00079200008792000087920000879200008AC
:1000D000792000087920000879200008B11F000865
:1000E000C11F000879200008792000087920000845
:1000F000792000087920000879200008792000087C
:10010000792000087920000879200008792000086B
:10011000792000087920000879200008792000085B
:10012000792000087920000879200008792000084B
:1001300000000000000000000000000000000000BF
:1001400000000000000000000000000000000000AF
:10015000000000000000000000000000000000009F
:10016000000000000000000000000000000000008F
:10017000000000000000000000000000000000007F
:10018000000000000000000000000000000000006F
:10019000000000000000000000000000000000005F
:1001A000000000000000000000000000000000004F
:1001B000000000000000000000000000000000003F
:1001C000000000000000000000000000000000002F
:1001D000000000000000000000000000000000001F
:0401E0005FF8E0F1F3
:1001E40010B5054C237833B9044B13B10448AFF36D
:1001F40000800123237010BD0C00002000000000CB
:10020400D420000808B5034B1BB103490348AFF3DE
:10021400008008BD0000000010000020D420000869
:1002240010B504460E4B18784FF47A73B3FBF0F311
:100234000C4A1068B0FBF3F000F08EF868B90F2C8C
:1002440001D901200AE0002221464FF0FF3000F0DE
:1002540041F8034B5C60002000E0012010BD00BFAA
:10026400000000200800002008B5074A136843F086
:1002740010031360032000F01BF80020FFF7D0FFE9
:1002840001F0AEFD002008BD00200240034A1168C1
:10029400034B1B780B441360704700BF2C000020F5
:1002A40000000020014B1868704700BF2C0000209C
:1002B400074AD36823F4E0631B041B0C000200F418
:1002C400E060184340F0BF6040F40030D0607047F5
:1002D40000ED00E030B4174BDB68C3F30223C3F135
:1002E4000704042C28BF04241D1D062D18D9033B24
:1002F4004FF0FF3505FA04F421EA0401994005FAA8
:1003040003F322EA0303194300280BDB0901C9B2F2
:1003140000F1604000F5614080F8001330BC704784
:100324000023E5E700F00F000901C9B2024B19549C
:10033400F4E700BF00ED00E014ED00E0002807DB67
:1003440000F01F02400901239340024A42F8203082
:10035400704700BF00E100E00138B0F1807F0AD2AD
:10036400064B5860064AF02182F82310002098605A
:1003740007221A6070470120704700BF10E000E0B8
:1003840000ED00E000283BD010B4034601681D4A8C
:1003940091422AD81C4A0A441C49A1FB02121209A0
:1003A400920002641A4AC263022283F82120186868
:1003B400016821F47F5121F030015A689C6822437E
:1003C400DC6822431C6922435C6922439C69224302
:1003D400DC6922430A43026000209863012283F807
:1003E400212083F8200010BC70470A4A0A440749B8
:1003F400A1FB0212120992000264074AC263D3E706
:100404000120704707040240F8FFFDBFCDCCCCCCDF
:1004140000000240F8FBFDBF0004024008B590F85C
:100424002130022B03D004238363012008BD02681A
:10043400136823F00E0313600268136823F00103AA
:10044400136003684B4A93424ED9783A934224D0BE
:100454001432934230D0143293422FD01432934248
:100464002FD0143293422FD0143293422FD014320F
:1004740093422FD002F5627293422ED014329342EB
:100484002DD0143293422CD01432934202D04FF424
:10049400803203E04FF4805200E00122364B5A6070
:1004A400012380F82130002380F82030436B002B97
:1004B4005ED098470020B9E71022EFE74FF480722E
:1004C400ECE74FF48052E9E74FF48032E6E74FF46B
:1004D4008012E3E74FF08072E0E70122DEE71022AA
:1004E400DCE74FF48072D9E7244A934224D01432D3
:1004F400934225D01432934224D01432934224D010
:100504001432934224D01432934224D014329342AE
:1005140024D002F56272934223D01432934222D043
:100524001432934221D01432934202D04FF48032D9
:1005340003E04FF4805200E00122114B5A60AFE710
:100544001022FAE74FF48072F7E74FF48052F4E791
:100554004FF48032F1E74FF48012EEE74FF08072EF
:10056400EBE70122E9E71022E7E74FF48072E4E7C2
:1005740000205BE7800002400004024008000240C3
:100584000000024038B5C36B1A6804682568016C22
:1005940004238B40134200F09B8015F0040F00F0FD
:1005A4009780236813F0200F03D1236823F00403FA
:1005B40023600368AA4A934246D9783A934224D0E6
:1005C4001432934228D01432934227D014329342E7
:1005D40027D01432934227D01432934227D01432B6
:1005E400934227D002F56272934226D0143293428A
:1005F40025D01432934224D01432934202D04FF4C3
:10060400802203E04FF4804200E00422954B5A60BC
:10061400C36A03B1984738BD4022F7E74FF48062BC
:10062400F4E74FF48042F1E74FF48022EEE74FF411
:100634008002EBE74FF08062E8E70422E6E740221D
:10064400E4E74FF48062E1E7874A934224D014320E
:10065400934225D01432934224D01432934224D0AE
:100664001432934224D01432934224D0143293424D
:1006740024D002F56272934223D01432934222D0E2
:100684001432934221D01432934202D04FF4802288
:1006940003E04FF4804200E00422744B5A60B7E751
:1006A4004022FAE74FF48062F7E74FF48042F4E720
:1006B4004FF48022F1E74FF48002EEE74FF08062BE
:1006C400EBE70422E9E74022E7E74FF48062E4E73E
:1006D40002238B40134200F0A38015F0020F00F0B8
:1006E4009F80236813F0200F06D1236823F00A03A8
:1006F4002360012380F821300368594A93424BD97F
:10070400783A934224D0143293422DD01432934237
:100714002CD0143293422CD0143293422CD0143265
:1007240093422CD0143293422CD002F5627293423D
:100734002BD0143293422AD01432934229D014324B
:10074400934202D04FF4003203E04FF4005200E031
:100754000222444B5A60002380F82030836A002B25
:100764003FF459AF984756E72022F2E74FF400725E
:10077400EFE74FF40052ECE74FF40032E9E74FF4AF
:100784000012E6E74FF00072E3E70222E1E72022DD
:10079400DFE74FF40072DCE7334A934224D014328B
:1007A400934225D01432934224D01432934224D05D
:1007B4001432934224D01432934224D014329342FC
:1007C40024D002F56272934223D01432934222D091
:1007D4001432934221D01432934202D04FF40032A7
:1007E40003E04FF4005200E00222204B5A60B2E7CB
:1007F4002022FAE74FF40072F7E74FF40052F4E7CF
:100804004FF40032F1E74FF40012EEE74FF00072BC
:10081400EBE70222E9E72022E7E74FF40072E4E77E
:10082400082303FA01F111423FF4F5AE15F0080F65
:100834003FF4F1AE236823F00E032360026CC16B16
:10084400012303FA02F24A60836380F82130002313
:1008540080F82030036B002B3FF4DDAE9847DAE6D6
:1008640080000240000402400800024000000240F0
:10087400F0B482B000263246ABE0002D63D0012DE7
:1008840000D1CE68FF2B72D88446FF2B72D8950016
:10089400DCF800400F27AF4024EA070406FA05F508
:1008A4002C43CCF800404C6814F0805F00F090803A
:1008B400664CA56945F00105A561A46904F001042D
:1008C4000194019C9508AF1C614C54F827C002F0B8
:1008D4000304A7000F24BC402CEA040C5D4CA04286
:1008E4004ED004F58064A04200F08C8004F580644E
:1008F400A04200F0898004F58064A04200F0868064
:1009040004F58064A04200F0838004F58064A04272
:1009140034D0062435E0504FBD4214D00BD94F4F8C
:10092400BD4210D007F58037BD420CD0A7F5801723
:10093400BD42A7D107E0A7F58017BD4203D007F554
:100944008037BD429ED18D687DB1012D08D04461B0
:10095400082697E7CE68083694E7CE680C3691E708
:10096400046108268EE700268CE704268AE700F156
:10097400040C8AE7A2F10805AD0089E7052400E02C
:100984000024BC4044EA0C040235314F47F82540AA
:100994004C6814F4803F3DD0314D2C681C432C60CE
:1009A4004C6814F4003F3BD02D4D6C681C436C60C4
:1009B4004C6814F4801F39D0294DAC681C43AC60DA
:1009C4004C6814F4001F37D0254DEC682343EB60CA
:1009D40001320B6833FA02F434D0012494402340EA
:1009E4009C42F5D14D68122DB7D094D8022DB1D0C8
:1009F4007FF643AF032DB6D0112D7FF443AFCE68FD
:100A040004363FE70124BCE70224BAE70324B8E72D
:100A14000424B6E7124D2C6824EA03042C60BFE7D3
:100A24000F4D6C6824EA03046C60C1E70C4DAC689C
:100A340024EA0304AC60C3E7094DEC6824EA030329
:100A4400EB60C5E702B0F0BC704700BF0010024085
:100A54000000014000080140000021100000311096
:100A64000004014012B90904016170470161704733
:100A7400C3680B4201D101617047416170477047FF
:100A840008B5054B5B69034200D108BD024B5861B0
:100A9400FFF7F5FFF9E700BF0004014082B0084BFF
:100AA4001B68084AA2FB03235B0A00FB03F00190C6
:100AB40000BF019B5A1E0192002BF9D102B070476E
:100AC40008000020D34D6210002800F0F58170B5B5
:100AD40082B00446036813F0010F2CD0AB4B5B6863
:100AE40003F00C03042B1DD0A84B5B6803F00C032C
:100AF400082B12D06368B3F5803F41D0002B55D149
:100B040003F1804303F504331A6822F480321A6037
:100B14001A6822F480221A6037E09C4B5B6813F455
:100B2400803FE7D0994B1B6813F4003F03D0636800
:100B3400002B00F0C381236813F0020F76D0934B8F
:100B44005B6813F00C0F5FD0904B5B6803F00C03F1
:100B5400082B54D02369002B00F08A808C4B01228F
:100B64001A60FFF79FFB0546884B1B6813F0020FC2
:100B740075D1FFF797FB401B0228F5D90320A0E1AC
:100B8400824A136843F480331360636843B3FFF706
:100B940089FB05467D4B1B6813F4003FCBD1FFF75F
:100BA40081FB401B6428F5D903208AE1B3F5A02F0B
:100BB40009D0764B1A6822F480321A601A6822F43B
:100BC40080221A60E1E703F18043A3F53C331A68FD
:100BD40042F480221A601A6842F480321A60D4E720
:100BE400FFF760FB0546694B1B6813F4003FA2D076
:100BF400FFF758FB401B6428F5D9032061E1634BE0
:100C04005B6813F4803FA5D1604B1B6813F0020F9F
:100C140004D02369012B01D0012052E15B4A1368FF
:100C240023F0F803616943EAC1031360236813F0F6
:100C3400080F32D0A369002B5BD0564B01221A60F7
:100C4400FFF730FB0546514B5B6A13F0020F21D1CD
:100C5400FFF728FB401B0228F5D9032031E14B4A5A
:100C6400136823F0F803616943EAC1031360DDE705
:100C7400474B00221A60FFF715FB0546434B1B68E0
:100C840013F0020FD2D0FFF70DFB401B0228F5D959
:100C9400032016E10120FFF701FF236813F0040F7E
:100CA40000F09880394BDB6913F0805F33D1374B08
:100CB400DA6942F08052DA61DB6903F08053019310
:100CC400019B0125344B1B6813F4807F25D0E36816
:100CD400012B36D0002B4CD103F1804303F50433B0
:100CE4001A6A22F001021A621A6A22F004021A62D3
:100CF4002CE0284B00221A60FFF7D4FA0546234B58
:100D04005B6A13F0020FC8D0FFF7CCFA401B02282D
:100D1400F5D90320D5E00025D4E71F4A136843F42E
:100D240080731360FFF7BEFA06461B4B1B6813F46F
:100D3400807FCCD1FFF7B6FA801B6428F5D9032055
:100D4400BFE0124A136A43F001031362E3687BB302
:100D5400FFF7A8FA06460D4B1B6A13F0020F38D1B1
:100D6400FFF7A0FA801B41F288339842F3D903209D
:100D7400A7E0052B12D0054B1A6A22F001021A6271
:100D84001A6A22F004021A62E0E700BF001002406F
:100D94000000424280044242007000404C4B1A6AF8
:100DA40042F004021A621A6A42F001021A62CDE7A2
:100DB400FFF778FA0646464B1B6A13F0020F08D079
:100DC400FFF770FA801B41F288339842F3D903206D
:100DD40077E0E5B9E369002B72D03D4A526802F02E
:100DE4000C02082A56D0022B17D03A4B00221A6064
:100DF400FFF758FA0446364B1B6813F0007F47D0C0
:100E0400FFF750FA001B0228F5D9032059E0304AB5
:100E1400D36923F08053D361DCE72E4B00221A60A0
:100E2400FFF740FA05462A4B1B6813F0007F06D0F3
:100E3400FFF738FA401B0228F5D9032041E0236A62
:100E4400B3F5803F1AD022494B6823F47413226A05
:100E5400606A024313434B601E4B01221A60FFF782
:100E640021FA04461A4B1B6813F0007F0ED1FFF7DA
:100E740019FA001B0228F5D9032022E0144A53680A
:100E840023F40033A1680B435360DCE7002018E02F
:100E9400002016E0012B16D00D4B5B6803F4803163
:100EA400226A914201D001200BE003F47013626ABC
:100EB40093420AD0012004E001207047012000E0A1
:100EC400002002B070BD0120FBE70020F9E700BF5D
:100ED400001002406000424210B487B0164C94E8FF
:100EE4000F000DF1180C0CE90F00238AADF8043043
:100EF400124B5B6803F00C02082A1AD1C3F3834235
:100F0400624412F8102C13F4803F05D10C4800FB06
:100F140002F007B010BC7047084B5B68C3F3404352
:100F2400634413F8143C074800FB02F0B0FBF3F0F1
:100F3400EFE70448EDE700BFEC2000080010024092
:100F440000093D0000127A00002800F0A38070B56B
:100F54000446524B1B6803F007038B420CD24F4AE2
:100F6400136823F007030B431360136803F00703AC
:100F74008B4201D0012070BD236813F0020F17D0FB
:100F840013F0040F04D0464A536843F4E0635360FB
:100F9400236813F0080F04D0414A536843F46053A4
:100FA40053603F4A536823F0F003A068034353603F
:100FB4000D46236813F0010F31D06368012B20D054
:100FC400022B25D0364A126812F0020F64D034493D
:100FD4004A6822F0030213434B60FFF763F90646A5
:100FE4002F4B5B6803F00C036268B3EB820F16D0DF
:100FF400FFF758F9801B41F288339842F0D9032057
:10100400B9E7274A126812F4003FE0D10120B2E7A1
:10101400234A126812F0007FD9D10120ABE71F4B9D
:101024001B6803F00703AB420CD91C4A136823F076
:1010340007032B431360136803F00703AB4201D08B
:10104400012098E7236813F0040F06D0144A53686C
:1010540023F4E063E1680B435360236813F0080F43
:1010640007D00F4A536823F46053216943EAC1034C
:101074005360FFF731FF0A4B5B68C3F30313094A5C
:10108400D35CD840084B1860084B1868FFF7C8F8C1
:10109400002070E70120704701206CE70020024027
:1010A4000010024000210008080000200400002075
:1010B400014B1868704700BF0800002008B5FFF70F
:1010C400F7FF044B5B68C3F30223034AD35CD840A5
:1010D40008BD00BF001002401021000808B5FFF74A
:1010E400E7FF044B5B68C3F3C223034AD35CD840D5
:1010F40008BD00BF001002401021000810B4036AAC
:10110400046A24F001040462846924F0F00444EACB
:10111400021223F00A030B438261036210BC70477E
:1011240010B4036A23F0100303628469036A24F48D
:10113400704444EA023223F0A00343EA01138261BB
:10114400036210BC7047836823F07003194341F0B5
:101154000701816070470268D36843F00103D360DC
:101164000268936803F00703062B03D0136843F067
:101174000103136000207047704770477047704741
:1011840010B5044603681A6912F0020F11D0DA6828
:1011940012F0020F0DD06FF002021A6101230377DF
:1011A40003689B6913F0030F70D0FFF7E6FF002379
:1011B400237723681A6912F0040F12D0DA6812F048
:1011C400040F0ED06FF004021A6102232377236800
:1011D4009B6913F4407F5FD02046FFF7CEFF0023C6
:1011E400237723681A6912F0080F12D0DA6812F014
:1011F400080F0ED06FF008021A61042323772368C6
:10120400DB6913F0030F4ED02046FFF7B6FF00232F
:10121400237723681A6912F0100F12D0DA6812F0DB
:10122400100F0ED06FF010021A6108232377236881
:10123400DB6913F4407F3DD02046FFF79EFF002377
:10124400237723681A6912F0010F03D0DA6812F0C9
:10125400010F36D123681A6912F0800F03D0DA68BF
:1012640012F0800F34D123681A6912F0400F03D0B2
:10127400DA6812F0400F32D123681A6912F0200F95
:1012840003D0DA6812F0200F30D110BDFFF774FFDD
:101294002046FFF773FF8AE72046FFF76DFF2046DD
:1012A400FFF76CFF9BE72046FFF766FF2046FFF73A
:1012B40065FFACE72046FFF75FFF2046FFF75EFFC0
:1012C400BDE76FF001021A61204600F04FFDC1E74F
:1012D4006FF080021A61204600F011F9C3E76FF045
:1012E40040021A612046FFF74AFFC5E76FF020026B
:1012F4001A61204600F002F9C7E700000368244A97
:10130400904212D002F5006290420ED0B0F1804FAC
:101314000BD0A2F59832904207D002F58062904239
:1013240003D002F58062904203D123F070034A682F
:101334001343174A904212D002F5006290420ED035
:10134400B0F1804F0BD0A2F59832904207D002F54D
:101354008062904203D002F58062904203D123F46C
:101364004073CA68134323F080034A69134303603C
:101374008B68C3620B688362054B984203D003F504
:101384000063984201D10B690363012343617047F1
:10139400002C0140A8B110B5044690F83D305BB173
:1013A400022384F83D30211D2068FFF7A7FF0123A5
:1013B40084F83D30002010BD80F83C3000F032FD50
:1013C400EEE70120704710B4846824F47F4442EAB5
:1013D40003230B432343836010BC704790F83C30D5
:1013E400012B66D010B50446012380F83C3002235B
:1013F40080F83D300268936823F47F4323F0770339
:1014040093600B68402B4AD013D9602B3DD01ED972
:10141400702B28D0B3F5005F30D1CB684A68896857
:101424000068FFF7D0FF2268936843F48043936019
:1014340024E0102B06D004D9202B03D0302B01D06C
:101444001CE0DBB919462068FFF77DFE16E0502B3F
:1014540014D1CA6849680068FFF750FE502120681B
:10146400FFF771FE0AE0CB684A6889680068FFF7F5
:10147400AAFF2268936843F077039360012384F8FA
:101484003D30002084F83C0010BDCA6849680068FB
:10149400FFF746FE60212068FFF755FEEEE7CA68B5
:1014A40049680068FFF72AFE40212068FFF74BFED9
:1014B400E4E70220704790F83C30012B1CD070B454
:1014C400012680F83C60022380F83D3002685568AC
:1014D400936825F070050C682C4323F080054B6855
:1014E4002B4354600268936080F83D60002380F8C9
:1014F4003C30184670BC70470220704770477047F4
:101504000268D36823F49073D3600268536923F0AC
:1015140001035361202380F83A30704790F8393042
:10152400DBB2212B2AD18368B3F5805F16D0036A1E
:101534005A1C02621A7803685A60C38C013B9BB23E
:10154400C384EBB90268D36823F08003D3600268D4
:10155400D36843F04003D36000207047036A1B88BC
:101564000268C3F30803536003691BB9036A0233B7
:101574000362E2E7036A01330362DEE70220704795
:101584000020704738B504460268136923F44053B9
:10159400C1680B43136183680269134342691A43A8
:1015A4000168CB6823F4B05323F00C031343CB60DE
:1015B4000268536923F4407381690B4353610268E1
:1015C400214B9A421FD0FFF779FD00EB800000EB1E
:1015D400800063689B00B0FBF3F01C4DA5FB003258
:1015E4005109642202FB110213013233A5FB0323C8
:1015F4005B0903F0F00202EB011203F00F03216810
:1016040013448B6038BDFFF769FD00EB800000EBED
:10161400800063689B00B0FBF3F00C4DA5FB003227
:101624005109642202FB110213013233A5FB032387
:101634005B0903F0F00202EB011203F00F032168CF
:1016440013448B60DEE700BF003801401F85EB5177
:1016540058B310B5044690F839300BB3242384F8FA
:1016640039302268D36823F40053D3602046FFF74F
:1016740089FF2268136923F4904313612268536934
:1016840023F02A0353612268D36843F40053D360E0
:101694000020E063202384F8393084F83A3010BD08
:1016A40080F8383000F0DCFBD8E70120704790F870
:1016B4003930DBB2202B16D1B9B1C2B190F8383031
:1016C400012B16D001628284C2840023C3632122C9
:1016D40080F8392080F838300168CA6842F0800206
:1016E400CA601846704702207047012070470120E5
:1016F40070470220704790F83A30DBB2202B20D19B
:1017040009B312B390F83830012B20D0816282855E
:10171400C2850023C363222280F83A2080F838303F
:101724000168CA6842F48072CA6001684A6942F07A
:1017340001024A610168CA6842F02002CA60184680
:101744007047022070470120704701207047022033
:101754007047704708B50168CB6823F04003CB603D
:10176400202380F83930FFF7F4FF002008BD08B5C6
:1017740090F83A30DBB2222B45D18368B3F5805F11
:101784000ED0036903BB03685A68836A591C8162DB
:101794001A70C38D013B9BB2C385F3B1002033E0C3
:1017A400826A036943B903685B68C3F3080313805F
:1017B400836A02338362ECE703685B68DBB21380FD
:1017C400836A01338362E4E703685B68826A511CBD
:1017D400816203F07F031370DBE70268D36823F0B0
:1017E4002003D3600268D36823F48073D360026853
:1017F400536923F001035361202380F83A3000F049
:10180400C9FA002000E0022008BD704710B5044664
:1018140002681368D168526913F00F0005D113F000
:10182400200F02D011F0200F53D1002867D012F0FE
:10183400010202D111F4907F61D013F0010F06D0A0
:1018440011F4807F03D0E06B40F00100E06313F0FB
:10185400040F04D01AB1E06B40F00200E06313F00F
:10186400020F04D01AB1E06B40F00400E06313F0FF
:10187400080F04D01AB1E26B42F00802E263E26B93
:10188400002A48D013F0200F02D011F0200F24D1E9
:1018940023685B6903F04003E26B12F0080F00D188
:1018A4003BB32046FFF72CFE23685A6912F0400F21
:1018B4001BD05A6922F040025A61636B8BB11A4AF9
:1018C4005A63606BFEF7AAFD28B3606B436B9847BD
:1018D40021E02046FFF74BFF1DE02046FFF747FFBE
:1018E400D6E72046FFF791FF15E02046FFF78DFF6E
:1018F40011E02046FFF789FF0023E3630BE013F0B8
:10190400800F02D011F0800F06D113F0400F02D0E7
:1019140011F0400F04D110BD2046FFF7FFFDFAE798
:101924002046FFF717FFF6E73119000808B5406AAB
:101934000023C385C384FFF768FF08BD2DE9F04386
:1019440089B000240494059406940794404B9A6942
:1019540042F010029A619A6902F010020092009A11
:101964009A6942F020029A619A6902F02002019277
:10197400019A9A6942F008029A619A6902F008028F
:101984000292029A9A6942F004029A619B6903F0F6
:1019940004030393039BDFF8C48022464FF6C0710F
:1019A4004046FFF75FF82B4E22464FF204013046C3
:1019B400FFF758F8DFF8A890224604214846FFF7BD
:1019C40051F84FF6C0730493012505950694022738
:1019D400079704A94046FEF74BFF4FF20403049314
:1019E40005950694079704A93046FEF741FF4FF486
:1019F40000430493DFF86C80CDF81480069504A9A5
:101A04001548FEF735FF04230493059506940797BC
:101A140004A94846FEF72CFF08230493CDF814804C
:101A2400069504A93046FEF723FF224621460920E5
:101A3400FEF750FC0920FEF781FC224621462820AF
:101A4400FEF748FC2820FEF779FC09B0BDE8F083D6
:101A540000100240000C0140000801400010014049
:101A6400001401400000111000B583B00E4B5A69F8
:101A740042F001025A615B6903F001030193019B87
:101A8400002211460C20FEF725FC0C20FEF756FC24
:101A9400002211460D20FEF71DFC0D20FEF74EFC22
:101AA40003B05DF804FB00BF0010024030B587B0FE
:101AB4000024029403940494059400940194104D1A
:101AC4004FF080432B6008236B60AC6040F2E73337
:101AD400EB602C616C618023AB612846FFF75AFCF4
:101AE4004FF48053029302A92846FFF777FC009431
:101AF400019469462846FFF7DEFC07B030BD00BFFD
:101B04001001002008B50848084B03604FF4E13386
:101B1400436000238360C36003610C2242618361DC
:101B2400C361FFF795FD08BD740000200048004024
:101B340010B590B02422002107A800F0C1FA0024B7
:101B440001940294039404940594022306930123BC
:101B54000A9310230B9306A8FEF7B6FF0F230193F5
:101B64000294039404940594214601A8FFF7ECF928
:101B740010B010BD08B5FEF777FBFFF7D9FFFFF7EC
:101B8400DDFEFFF771FFFFF791FFFFF7BBFF704822
:101B9400FFF7E1FA01226F496F48FFF7ACFD27E038
:101BA4006E4B00221A7028E06C4B00229A705A7017
:101BB40028E06B4C4FF480712046FEF759FF012258
:101BC4004FF409412046FEF74DFF664D01224FF4C4
:101BD40080412846FEF746FF00224FF40941204683
:101BE400FEF740FF00224FF480412846FEF73AFFFB
:101BF4005A4B1B78DBB2012BD2D0584B5B78DBB24B
:101C0400012BD1D0554B9B78DBB2042BF0D801A229
:101C140052F823F0E51C0008B71B00082D1C00082F
:101C2400631C0008AF1C00084D4D01224FF4C06135
:101C34002846FEF717FF4B4C012248F204012046C8
:101C4400FEF710FF00224FF4C0612846FEF70AFF9A
:101C5400002248F204012046FEF704FFC8E7404E84
:101C6400012244F240013046FEF7FCFE3D4D0122C4
:101C74004FF480512846FEF7F5FE3B4C0122042127
:101C84002046FEF7EFFE002244F240013046FEF704
:101C9400E9FE00224FF480512846FEF7E3FE0022BD
:101CA40004212046FEF7DEFEA2E72D4D01224FF46B
:101CB40042512846FEF7D6FE2A4C01224FF4005129
:101CC4002046FEF7CFFE00224FF442512846FEF78D
:101CD400C9FE00224FF400512046FEF7C3FE87E7F9
:101CE4001F4D00224FF409412846FEF7BBFE1D4C50
:101CF40000224FF480412046FEF7B4FE00224FF448
:101D0400C0612846FEF7AEFE002248F204012046D8
:101D1400FEF7A8FE002244F240012846FEF7A2FE88
:101D240000224FF480512046FEF79CFE002204213D
:101D34000D48FEF797FE00224FF442512846FEF765
:101D440091FE00224FF400512046FEF78BFE4FE730
:101D540010010020F800002074000020280000205A
:101D640000100140000C0140001401400368B3F16D
:101D7400804F00D07047064A93780133DBB29370EA
:101D84009378DBB2042BF5D9134601229A70F1E75C
:101D94002800002010B50D4AD3780D4C20780D4949
:101DA400C8540133D370012221460B48FFF7A3FC2A
:101DB40023780A2B00D010BD044CE278054906486C
:101DC400FFF775FC0023E370F5E700BF280000204F
:101DD400F80000205001002074000020704700002B
:101DE40082B00E4B9A6942F001029A619A6902F03C
:101DF40001020092009ADA6942F08052DA61DB69EA
:101E040003F080530193019B054A536823F0E06378
:101E140043F00073536002B0704700BF00100240EB
:101E2400000001400368B3F1804F00D0704700B553
:101E340083B003F50433DA6942F00102DA61DB6945
:101E440003F001030193019B002211461C20FEF7BD
:101E540041FA1C20FEF772FA03B05DF804FB00009F
:101E640070B586B00023029303930493059302682C
:101E74002D4B9A4201D006B070BD044603F5E433FD
:101E8400DA6942F48022DA61DA6902F4802200928B
:101E9400009A9A6942F008029A619B6903F0080368
:101EA4000193019B4FF48063029302230393032362
:101EB40005931E4E02A93046FEF7DAFC4FF4006388
:101EC400029300250395049502A93046FEF7D0FC41
:101ED4001748184B0360456085608023C360056123
:101EE40045618561C561FEF74DFAB0B9104B636376
:101EF4005C621148114B036010234360002383602C
:101F04008022C260036143618361C361FEF73AFAD0
:101F140030B9094B23635C62ADE7FFF75FFFE5E788
:101F2400FFF75CFFF5E700BF00480040000C0140EC
:101F34003000002030000240B40000201C000240A9
:101F44007047FEE7FEE7FEE7FEE77047704770471D
:101F540008B5FEF79BF908BD08B5064B5B6913F09D
:101F6400080F02D0044B01221A700820FEF788FDE6
:101F740008BD00BF000401402800002008B5024845
:101F8400FEF700FB08BD00BFB400002008B50248FE
:101F9400FEF7F8FA08BD00BF3000002008B502487B
:101FA400FFF7EEF808BD00BF1001002008B5024895
:101FB400FFF72CFC08BD00BF7400002008B5064BD9
:101FC4005B6913F4004F02D0044B01221A704FF4E2
:101FD4000040FEF755FD08BD000401402900002023
:101FE4000F4B1A6842F001021A6059680D4A0A4000
:101FF4005A601A6822F0847222F480321A601A68D5
:1020040022F480221A605A6822F4FE025A604FF4C5
:102014001F029A60044B4FF000629A60704700BF41
:10202400001002400000FFF800ED00E0002103E092
:102034000B4B5B58435004310A480B4B42189A42ED
:10204400F6D30A4A02E0002342F8043B084B9A42C2
:10205400F9D3FFF7C5FF00F00FF8FFF78BFD7047CA
:1020640020210008000000200C0000200C000020AB
:1020740058010020FEE7000070B500250C4E0D4C01
:10208400A41BA410A54209D100F022F800250A4E91
:102094000A4CA41BA410A54205D170BD56F82530E6
:1020A40098470135EEE756F8253098470135F2E7B1
:1020B4001821000818210008182100081C21000814
:1020C40003460244934200D1704703F8011BF9E729
:1020D400F8B500BFF8BC08BC9E467047F8B500BF11
:0820E400F8BC08BC9E467047E1
:1020EC0002030405060708090A0B0C0D0E0F10104D
:1020FC0001020000000000000000000001020304C7
:0C210C000607080900000000010203049F
:0421180009020008B0
:04211C00E5010008D1
:0C21200001000000100000000024F4008A
:04000005080020319E
:00000001FF
